:020000040000FA
:06000000020B0202025196
:03002B000208FCCC
:030033000206C3FF
:0300530002018621
:03006B0002069DED
:100083000201E5010000000000F8FF07FFFF000088
:10009300070400000003000147726F757000FF043E
:1000A30000100020FD0002000056100000000000B8
:1000B30000B6100000000000003210000000000035
:1000C30000000000003E10000000000000000000DF
:1000D30000000006FFFF1E01EE140000FA140000EA
:1000E300000000000000000000000000000000000D
:1000F300102020202020202020202020202020200D
:1001030020010104010C00010390810142820104DA
:1001130000002118000000E8030000FFFF9B180106
:1001230088130000E803000064006400B801A0BB6A
:100133000D00A0BB0D0002020207040101051E020F
:10014300051E020A0A0101010809080103B80B028E
:10015300803E0102FEFFE8030A050001FFFF010ADA
:100163001401E0020000000105030101FF0F10FE6E
:10017300FF332B00000000CB2A00000000FF00002B
:1001830000FF00C0E074F1120468A2AFE433F50984
:10019300D2AF85A708AFA1EF5508FE74105E6006C5
:1001A300120DB675A1EF74085E6008120DBC75A13F
:1001B300F78024EFA2E092F0E508A2E082F0501766
:1001C300906198E0F89004A5E0C398A2D265D0337B
:1001D3005002E8F075A1FEE509A2E092AF7F0202AA
:1001E30004C7C0E074F2120468A2AFE433FED2AFD6
:1001F3009061A4E0F8759B00E59158540860087578
:1002030091F7120E0A8023E59158541060087591F6
:10021300EF120E108014E591A2E092F0E8A2E082C2
:10022300F05007E0C2E0F0120F669061A3E0F8E53A
:10023300E9585404600E120F3C75E9FB906193E09A
:10024300A2E640F2EEA2E092AF7F010204C7C0E053
:1002530074F2120468A2AFE433FED2AF9061A5E05A
:10026300F8E5BF585404600675BFFB120F7E80D4B7
:10027300C3E498F8E499F91202B48026C3E49AFA25
:10028300E49BFBE920E7E91202B4E498F8E499F966
:1002930022C3E498F8E499F91202B4E498F8E499D3
:1002A300F9C3E49AFAE49BFB22EB20E7CFE920E7CA
:1002B300E0B90010BB0008E88AF084F8AAF022E451
:1002C300FBC8FA22EB70227B10C833C8C933C93389
:1002D3005007C39AC3DBF280069A50012ADBEAC8AF
:1002E30033F4C8C933F4C9FA2275F008E4C833C833
:1002F300C933C933C99AC99B5004C92AC93BD5F02C
:10030300ECFBC833F4C8E4C9FA22080808EAC0E0E1
:10031300EBC0E086F0E7A4FA180986F0E7A42AFA0E
:10032300180986F0E7A42AFA180986F0E7A42AFA3E
:100333001986F0E7A4FBE5F02AFA190886F0E7A48A
:100343002BFBE5F03AFA190886F0E7A42BFBE5F05E
:100353003AFA18180986F0E7A4C5F02BFBE43AFA39
:100363001908E7C5F0C6A426F6E5F03BFBE43AFA24
:100373001886F0E7A4F6E5F00826F6E43B08F6E471
:100383003A08F6D0E0FBD0E0FA22E4CFC0E0E4CEB6
:10039300C0E0E4CDC0E0E4CCC0E075F020E626F692
:1003A30008E633F608E633F608E633F6181818ECD1
:1003B30033FCED33FDEE33FEEF33FFC3EC9709ED72
:1003C3009709EE9709EF97191919400FFFEC97FC5E
:1003D30009ED97FD09EE97FE191906D5F0BFECF765
:1003E30009EDF709EEF709EFF7191919D0E0FCD079
:1003F300E0FDD0E0FED0E0FF222518C582C0E0E595
:100403001934FFC583C0E0E518C3958224F810AF03
:10041300088583198582188008858319858218D2F7
:10042300AFCEF0A3E520F0A37808E608F0A3DEFA48
:10043300EFF0A3E58124FAF8E608F0A3E608F0A3B9
:10044300E608F0A30808E608F0A3E608F0A3158180
:100453001581D0E0FED0E0F8158115811581E8C043
:10046300E0EEC0E022C0D02518C582C0E0E5193413
:10047300FFC583C0E0E518C3958224F310AF088558
:1004830083198582188008858319858218D2AFC89D
:10049300F0A3E9F0A3EAF0A3EBF0A37908E709F0EE
:1004A300A3D8FAECF0A3EDF0A3EEF0A3EFF0A3D002
:1004B300E0F0A3D0E0F0A3D0E0F0A3E520F0A3E5C3
:1004C300F0F0A322851983851882E0C0E0A3E0F948
:1004D300A3E0FAA3E0FBA37808E0F608A3DFFAE0C1
:1004E300FCA3E0FDA3E0FEA3E0FFA3E0C0E0A3E0E4
:1004F300C0E0A3E0F5D0A3E0F520A3E0A3F5F0105E
:10050300AF08858319858218800885831985821829
:10051300D2AFD082D083D0E0F8D0E032120B7CB9D6
:10052300000302055EE4900401789879188002F0D4
:10053300A3D8FCD9FA7A987B1B90008678017902BC
:100543008015E493A3AD82AE838A828B83F0A3AA42
:1005530082AB838D828E83D8E9D9E7758202758356
:10056300A2740612087375825C75832874001208DE
:100573007375F0108E1A8F1B85821F85831E851855
:1005830082851983E0CEA3E0CF851F82851E83EB8E
:10059300C9EAC8EDCBECCAC3E833C8E933C9EA33C7
:1005A300CAEB33CBC3EA9EF51DEB9FF51CB3500496
:1005B300AB1CAA1DEC33CCED33CDD5F0DAAE1AAFBC
:1005C3001B22D083D082ECC0E0EDC0E0E493A3FC17
:1005D300E493A3FDED4C600D1206E1EC24FFFCED6A
:1005E30034FFFD80EFE493A3FCE493A3FDED4C60A3
:1005F3000D12077EEC24FFFCED34FFFD80EFD0E00D
:10060300FDD0E0FCE493A3C0E0E493C0E0228519AD
:1006130083851882E0A3FEE0A3F5207808E0A3F623
:1006230008DFFAE0A3FFE0A3C0E0E0A3C0E0E0A39B
:10063300C0E0E0A3C0E0E0A3C0E010AF08858218EB
:100643008583198008858218858319D2AFD083D01A
:1006530082020879D083D082E9C0E0E493A3C38601
:10066300F0C5F095F0F908E493A386F0C5F095F092
:10067300700BE493A3C3994005E9048002A3E475D6
:10068300F002A42582F582E5F03583F583D0E0F905
:10069300E493A3C0E0E493C0E022C0E074F2120448
:1006A30068A2AFE433FED2AFE589A2E15003120C96
:1006B300F6758900C2C5EEA2E092AF7F010204C7BE
:1006C300C0E074F2120468A2AFE433FED2AFE58B4C
:1006D300A2E05003120CF6758B00C2E880D8C0E08C
:1006E300C3E49396087401939618400FE4936670DD
:1006F3000808740193661870007019A3A3C3E493E8
:1007030096087401939618A3A3400DD0E0D0E0D0CF
:10071300E0020601A3A3A3A3A3A3D0E02274048051
:100723000474028000CCC0E0EDC0E0E518C39CCCAB
:10073300AD1950011D10AF068C188D1980068C1849
:100743008D19D2AF1207F5D0E0FDD0E0FC22740280
:100753008000CCC0E0EDC0E0E518C39CCCAD1950DF
:10076300011D10AF068C188D1980068C188D19D2B7
:10077300AF1207D3D0E0FDD0E0FC22C0E0C0F08888
:10078300F0E4936670080874019366187000A8F08B
:10079300A3A3700BD0F0D0E0D0E0D0E0020601A319
:1007A300A3D0F0D0E022D083D082CCC0E0E493A3E6
:1007B30060061208161470FAE493A3600612097512
:1007C3001470FAD0E0FCE493A3C0E0E493C0E02209
:1007D300CAC0E0E493A3C582CCC582C583CDC583DB
:1007E300F0A3C582CCC582C583CDC583DAE5D0E04D
:1007F300CA22CAC0E0E0A3C582CCC582C583CDC5E9
:1008030083F0A3C582CCC582C583CDC583DAE6D088
:10081300E0CA22C0E0E493A3D39C5010E493A3C3A3
:100823009C400AD0E0D0E0D0E00207C6A3A3A3D047
:10083300E022C008C3E096F50808A3E09642080842
:10084300A3E096420808A3E09645087001D3D008B8
:10085300227009080808226016181818C6C333C680
:1008630008C633C608C633C608C633C6D5E0EA226F
:10087300C09FF59FE473D09F22D083D082C09FE4B2
:1008830093C0E0740193C0E0740293F59F22740453
:10089300800A74038006740280027401C0E0F404C9
:1008A3001208C7D0E0120B3F2200C0D0251810AFAA
:1008B30008F518500C05198008F51850020519D2CF
:1008C300AFD0D0222518F58210AF08F518400C15CB
:1008D300198008F51840021519D2AF85198322BB78
:1008E3000102E722C082C08389828A83BB0003E0BE
:1008F3008002E493D083D08222C0E0C0D0E8C0E07D
:10090300A8A8D2AFC2C7E8A2E792AFD0E0F8D0D090
:10091300D0E0326016080808C6C313C618C613C64B
:1009230018C613C618C613C6D5E0EA222518F8E47C
:100933003519F9222518FAE43519FB222518FCE4A8
:100943003519FD22C3E0C696F608A3E0C696F6085D
:10095300A3E0C696F608A3E0C696F622251810AFC4
:1009630008F518400C15198008F51840021519D21E
:10097300AF22C0E0E493A36C7009D0E0D0E0D0E0F4
:100983000207C6A3A3D0E022E066701008A3E066C6
:10099300700A08A3E066700408A3E06622C3E09629
:1009A30008A3E09608A3E09608A3E096A2D265D038
:1009B3003322E76670100809E766700A0809E766DC
:1009C30070040809E76622C3E697F60809E697F676
:1009D3000809E697F60809E697F622C3E493960812
:1009E300740193960874029396087403939622C332
:1009F300E096F008A3E096F008A3E096F008A3E0E1
:100A030096F022E657F60809E657F60809E657F680
:100A13000809E657F622E026F608A3E036F608A30F
:100A2300E036F608A3E036F622E493F60874019361
:100A3300F608740293F608740393F622E056F60858
:100A4300A3E056F608A3E056F608A3E056F622E024
:100A530056F008A3E056F008A3E056F008A3E056CA
:100A6300F022E647F60809E647F60809E647F608DE
:100A730009E647F622700422600D18C6C333C60880
:100A8300C633C6D5E0F41822E627F60809E637F69A
:100A93000809E637F60809E637F622E026F008A348
:100AA300E036F008A3E036F008A3E036F022E4C312
:100AB30096F608E496F608E496F608E496F62260BD
:100AC3000D08C6A2E713C618C613C6D5E0F322C69F
:100AD300F4C608C6F4C608C6F4C608C6F4C622C3DC
:100AE300E7960809E7960809E7960809E79622C3F7
:100AF300E09608A3E09608A3E09608A3E096227583
:100B0300D00075813F7518017519040002051FE6B1
:100B1300F008A3E6F008A3E6F008A3E6F022600CD1
:100B230008C6C313C618C613C6D5E0F422E0F608F8
:100B3300A3E0F608A3E0F608A3E0F622CAC0E0E6C5
:100B4300F0A308DAFAD0E0FA22E8F0A3E9F0A3EA86
:100B5300F0A3EBF022E0F8A3E0F9A3E0FAA3E0FBB3
:100B630022EAF0A3EBF0A3ECF0A3EDF022E0FAA36A
:100B7300E0FBA3E0FCA3E0FD22E5C754F84401F544
:100B8300C77901222518F582E43519F58322C2AF0E
:100B930075D69F0200002212087C76CF0512087CCE
:100BA30062D00512087C00D10512087C1BD1051206
:100BB300087C85D10512087C8FD10512087C99D158
:100BC3000512087C36D20512087CF4D20512087C83
:100BD30055D40512087CACD40512087CE4D4051264
:100BE300087CB9F10112087C35F20112087C68F225
:100BF3000112087C96F20112087CB0F40112087C01
:100C0300CCF40112087C11F50112087C96F501124F
:100C1300087CE2F50112087C72F60112087C4AF79F
:100C23000112087C9BF70112087C00F80112087C72
:100C33007DF80112087CB3F80112087CFEF801125A
:100C4300087C24F90112087CB4F90112087C4BFAE0
:100C53000112087C97FA0112087CC8FA0112087C79
:100C6300FFFA0112087C90FC0112087C5AFD011264
:100C7300087C34FE0112087C76B80612087C91B811
:100C83000612087CBCAE0612087CF5AE0612087C80
:100C9300FDB30612087C0EB40612087CACB406122F
:100CA300087CC4B40612087CF97F0012087CEAFFB2
:100CB3000512087CB9B60612087CC9B60612087C70
:100CC300E1B60612087C49B70612087C00B1061289
:100CD300087C83B10612087CE9B10612087CB3A52F
:100CE3000612087CD2A50612087C3FA60612087CD1
:100CF30084A60612087CDDA60612087C59AC0612EF
:100D0300087C6EAC0612087CE2AC0612087CFCACD4
:100D13000612087C13AD0612087C21AD0612087C6E
:100D230039AD0612087C57AD0612087C41900612B5
:100D3300087C4F900612087CC8900612087C9C9190
:100D43000612087C6E930612087CC8FF0412087C06
:100D5300DEEF0512087C0AF00512087C7BF205120F
:100D6300087CBBF20512087CFBF20512087C0FF32A
:100D73000512087C28F30512087C19F40512087C77
:100D8300BEF40512087CD2F40512087C80A8061272
:100D9300087CA4A80612087CBDA80612087CEFA84C
:100DA3000612087C1FA90612087C4CA90612087CAF
:100DB300AEA90612087CBDA90612087CC7A90612B3
:100DC300087CD4A90612087C279D0612087C479D3F
:100DD3000612087C869D0612087CA19D0612087CDB
:100DE300C09D0612087C269E0612087C2F9E0612C2
:100DF300087C8C9E0612087C9B9E0612087CBF9E74
:100E03000612087C809F0612087C8D9F0612087CC0
:100E13009E9F0612087CA6B70612087CBEB7061270
:100E2300087CEAB70612087C42800612087C968189
:100E33000612087CA4810612087CB7810612087C7E
:100E4300CC810612087CE1810612087CF48106122B
:100E5300087C68820612087CCD820612087C6F83A8
:100E63000612087C33840612087C43840612087C2D
:100E730052840612087C8AB50612087CAEB50612A7
:100E8300087CD6B50612087CFEB50612087C857D63
:100E93000012087CAC7D0012087CCA7D0012087C1D
:100EA3003D7E0012087C58970612087C7197061243
:100EB300087C7D970612087C91970612087CAF97F1
:100EC3000612087CB9970612087CC3970612087CA1
:100ED300D6970612087C60980612087CD5980612ED
:100EE300087C09990612087C57990612087CA49974
:100EF3000612087CBF990612087CC9990612087C61
:100F0300EF990612087C549A0612087CD3B4061291
:100F1300087CF5B40612087C4AB90612087C60DF27
:100F23000512087C8ADF0512087CA7DF0512087CFE
:100F3300BADF0512087CD0DF0512087C2EE005120B
:100F4300087C66E00512087C5EE40512087CA3E5D4
:100F53000512087CD6E50512087C39E60512087CE3
:100F6300B2E70512087CDAE70512087CEFE7051201
:100F7300087CFFE70512087C43E80512087C9EE81D
:100F83000512087CAEE80512087C8CAD0612087CBD
:100F9300A6AD0612087CCEAD0612087CE7AD06129C
:100FA300087C0BAE0612087C29AE0612087C40AE04
:100FB3000612087C6EAE0612087C89AE0612087C07
:100FC30032B80612087CD3930612087CE393061208
:100FD300087CE8940612087C1A950612087C4A9548
:100FE3000612087C6D950612087C84950612087C0F
:100FF300BE950612087C23960612087C6596061297
:10100300087CA4960612087CD5960612087C0097E5
:101013000612087C22AB0612087C40AB0612087C41
:10102300A5AB0612087C44AC0612087C0DFF011226
:10103300087CEAAF0612087C30B00612087C44FE36
:101043000512087C9BFF0512087CDEA90612087CAA
:1010530002AB0612087C2AD50512087C9FD805121C
:10106300087C95DA0512087CC3DB0512087CA0DC3A
:101073000512087C1BDE0512087CE7DE0512087CDE
:101083003BDF0512087CF1A30612087C12A40612AA
:10109300087C4CA50612087C76A50612087CB8B815
:1010A3000612087CC8B80612087CD2B80612087C5F
:1010B300F5E70412087CF8E70412087C2EEF04120B
:1010C300087C68F00412087CBBF10412087C73F2FC
:1010D3000412087C5AF30412087C43F40412087CBB
:1010E3003BF50412087CEDF50412087C1DF604128E
:1010F300087CD7F70412087C1CA70612087C3CA7BF
:101103000612087C50A80612087C53A80612087C15
:1011130002B30612087C38B30612087C4EB30612DB
:10112300087C90B30612087CA0B30612087CAFB308
:101133000612087CF3B30612087CBEF80412087C7E
:10114300F8F80412087C61F90412087C7EF9041291
:10115300087C97F90412087C39FA0412087C42FAD5
:101163000412087C87FA0412087CB0FA0412087C83
:10117300BDFA0412087C2EFB0412087CB9FB04128E
:10118300087C07FC0412087C45FC0412087CAAFCBA
:101193000412087CCDFC0412087C44FD0412087C74
:1011A3009BFD0412087CD6FD0412087C0BFE04127E
:1011B300087C1DFE0412087C2FFE0412087C4EFEE0
:1011C3000412087C57FE0412087C12FF0412087CE8
:1011D3005EFF0412087C9CFF0412087CE6F40512EF
:1011E300087C26F60512087C49F60512087C5AF697
:1011F3000512087C59F80512087C79F80512087C59
:10120300CC9F0612087C02A00612087C4AA0061294
:10121300087CA3A10612087C4CB70612087CCA6995
:101223000012087CEE6A0012087C286B0012087C0E
:10123300D26C0012087CFC6C0012087C716F0012E7
:10124300087CB16F0012087C47710012087CE471BE
:101253000012087C36720012087CD9720012087CD6
:1012630011730012087C53730012087CC2740012BD
:10127300087C10760012087C41780012087C6F7895
:101283000012087C96780012087C9F780012087C74
:10129300F6780012087C88790012087CB57C00126D
:1012A300087C387D0012087CD67F0012087CEC7F16
:1012B3000012087CF8FB0312087C0EFC0312087C66
:1012C300B2FC0312087CF1FC0312087C0EFD03122E
:1012D300087C3FFD0312087C8CFD0312087CBFFDD4
:1012E3000312087CFAFD0312087CEFFF0312087C4B
:1012F30002B20612087C61B20612087C9FB2061283
:10130300087CE0B20612087CEDB70612087CF9B738
:101313000612087C04B80612087C00800412087CBC
:101323000C800412087C6E800412087C78800412FE
:10133300087C09810412087C45810412087CF98128
:101343000412087C0C820412087C6D820412087C4F
:10135300D8820412087C47830412087CC7830412D2
:10136300087C5E850412087C33870412087C6F882E
:101373000412087CD2890412087C858A0412087C32
:10138300418F0412087C36900412087CCB9004121F
:10139300087CF0900412087C8C910412087CA191C3
:1013A3000412087CC5910412087C36920412087C4E
:1013B30053920412087C7D920412087C1394041245
:1013C300087C34940412087CDA940412087C219576
:1013D3000412087C86950412087C07960412087C84
:1013E3006B960412087CC7960412087C5D9704125E
:1013F300087CD0970412087C04980412087C679830
:101403000412087CC7990412087C5E9B0412087CB2
:101413000B9C0412087C709E0412087CD99E041253
:10142300087C039F0412087C2EA10412087CB9A334
:101433000412087CB4A40412087CA3CA0412087C16
:1014430032CB0412087CA8CB0412087C87CC04128C
:10145300087C82CD0412087CFFCD0412087C3DCFAA
:101463000412087CD8CF0412087CAFD10412087C84
:101473009ED20412087CBBD20412087CDED3041271
:10148300087C1FD50412087CC1D50412087CF3D84C
:101493000412087CEFDA0412087C79DB0412087C5E
:1014A300D3DB0412087C21DC0412087C9CDC0412CC
:1014B300087C19DD0412087C5ADD0412087CD8E389
:1014C3000412087C29E60412087C00E70412087C55
:1014D3005F9A0612087CE89A0612087CBD9B0612E6
:1014E300087CE29B0612087C0A9C0612087C0D9C71
:1014F3000612087C169C0612087C199C0612087CAE
:101503004D9C0612087C1FB90612087C2AE40212BD
:10151300087C5CE40212087CD8E40212087C26E60C
:101523000212087C0CE70212087CCEE80212087C47
:10153300F3E80212087C45E90212087CC7E90212AB
:10154300087C0EEA0212087C21EA0212087C78EA7F
:101553000212087CD1EA0212087C97EB0212087C83
:1015630003EC0212087C2DEC0212087C76EC0212CA
:10157300087CFBED0212087CD4EE0212087C23F0F7
:101583000212087C04F10212087C8CF10212087C1E
:10159300CFF10212087CE9F10212087C30F2021248
:1015A300087C50F20212087C0BF30212087C18F438
:1015B3000212087C2CF40212087C80F40212087CCC
:1015C300DAF40212087C2BF50212087C27F60212C9
:1015D300087CA1F80212087CC0F80212087C35F9D5
:1015E3000212087C5AF90212087CD7F90212087C0D
:1015F3009DFA0212087CDAFA0212087C53FB0212EB
:10160300087C47FC0212087C4AFC0212087C54FC4A
:101613000212087C5EFC0212087C71FC0212087C38
:10162300EDFC0212087C23FD0212087C36FD021237
:10163300087C62FD0212087C89FD0212087CADFD64
:101643000212087CE8FD0212087C5AFE0212087C92
:1016530082FE0212087C8CFE0212087CC8FE021273
:10166300087CE2FE0212087C07FF0212087C35FFA9
:101673000212087C4BFF0212087C63FF0212087CF3
:1016830075FF0212087CA8FF0212087CC0FF021239
:10169300087CF67F0012087CDEE80512087C2DE941
:1016A3000512087CCDEA0512087C88EC0512087C3B
:1016B300CAEC0512087CB3ED0512087CBDEE0512D9
:1016C300087CDFEE0512087C29EF0512087CAAEFDF
:1016D3000512087CCBD90312087CEED90312087CCF
:1016E30059DB0312087CA2DB0312087CFCDB031228
:1016F300087C62DC0312087C65DC0312087CB1DC25
:101703000312087C2BDD0312087CBCDD0312087C6A
:10171300BFDD0312087C51DE0312087C94DE031242
:10172300087CFDE20312087C8DE40312087CC0E40C
:101733000312087C1BE50312087C78E80312087C7B
:10174300EDE80312087C8BEA0312087C90EB03128A
:10175300087CB2EC0312087C24ED0312087C00EE33
:101763000312087C8EEE0312087C91EE0312087CB0
:101773006BEF0312087C9FF00312087C51F20312F3
:10178300087C00F40312087CB6F40312087C59F5B4
:101793000312087C45F60312087CF1F70312087C58
:1017A3000AF90312087C63FA0312087CB0FA0312E5
:1017B300087C45FB0312087C00800512087CA0808E
:1017C3000512087C0A810512087C23810512087C16
:1017D300B2810512087CF6810512087C0A83051282
:1017E300087C46830512087CCC830512087C178489
:1017F3000512087C76840512087C81850512087C15
:1018030096880512087CC8890512087C498A051246
:10181300087C488C0512087CED8C0512087C908DA1
:101823000512087CEF8D0512087C648E0512087C76
:10183300B08F0512087C7B900512087CB1900512CD
:10184300087CCE900512087C74910512087CC09127
:101853000512087C4C920512087CCD930512087C76
:101863007C950512087CCC960512087C38980512E5
:10187300087C48990512087CEE990512087C579A52
:101883000512087C769B0512087CD8A80412087CF4
:101893004CA90412087C94A90412087CD2A904124E
:1018A300087C21AA0412087C6BAA0412087CA3AA50
:1018B3000412087C21AB0412087C7BAB0412087C65
:1018C300D7AC0412087C66AD0412087C7DAE04120A
:1018D300087CA5AE0412087CEBAF0412087CFCAFB5
:1018E3000412087C14B00412087C1EB10412087C94
:1018F300E8B10412087CF5B20412087C19B304128F
:10190300087C30B30412087C51B30412087C73B30F
:101913000412087C90B30412087C6CB40412087C93
:10192300C4B40412087C56B70412087CA5B7041289
:10193300087CC4B70412087CA3B80412087C67B2FD
:101943000512087CF1B90412087C6EBA0412087CF3
:10195300DBBA0412087C17BB0412087C80BB041298
:10196300087C3ABC0412087CF8BD0412087CF9BE5A
:101973000412087C7EC00412087C69C20412087C2D
:10198300CCC40412087C72C60412087C40C704123B
:10199300087CA6C70412087CBDC70412087CADC826
:1019A3000412087CACCE0512087C06CA0412087C1B
:1019B300828C0612087C278E0612087CE48E06129F
:1019C300087C488F0612087CBC8F0612087CBF88EF
:1019D3000612087CDD880612087C21890612087C21
:1019E30047890612087C6D890612087C85890612D0
:1019F300087C9D890612087C008A0612087C428AAC
:101A03000612087C648B0612087C6D8B0612087C18
:101A1300768B0612087C7F8B0612087C898B061254
:101A2300087CAFF90512087CCAFD0512087CD8FDB5
:101A33000512087CDDFD0512087C7EA20612087CD7
:101A4300F3B80612087C8B840612087C23B60612B0
:101A5300087C4DB60612087C00800312087C328095
:101A63000312087C9E800312087C39810312087CD0
:101A7300D8810312087C1D820312087C3F82031263
:101A8300087C58820312087C7E820312087CA082A1
:101A93000312087CDE820312087C22830312087C73
:101AA30044830312087CA6830312087C6D8403120B
:101AB300087C24850312087C96850312087C6886BB
:101AC3000312087CB2860312087C05870312087C84
:101AD3006B870312087CA5870312087CF787031220
:101AE300087C13880312087C3E880312087C458A0D
:101AF3000312087C998B0312087CBB8B0312087CAE
:101B0300EF8B0312087C108C0312087C1F8C0312CA
:101B1300087C2A8C0312087CDA8C0312087C438D20
:101B23000312087CF08D0312087C288E0312087CB4
:101B3300EE8E0312087CFB8F0312087C4590031280
:101B4300087CD4900312087C38910312087C7391AB
:101B53000312087CDF930312087C33950312087C7D
:101B63006C980312087C39990312087CC7990312F5
:101B7300087CF0990312087C629A0312087CF69A97
:101B83000312087C549B0312087C469C0312087CB6
:101B9300689C0312087CC49D0312087CDD9D03121C
:101BA300087CF09D0312087C4D9E0312087C5C9E0A
:101BB3000312087CEF9E0312087CFB9F0312087C30
:101BC30008A00312087C11A00312087CE9A10312E8
:101BD300087C0FA30312087C1FA30312087C21A413
:101BE3000312087C98A40312087CC7A40312087C80
:101BF300CDA50312087C13A60312087CDFA70312EA
:101C0300087CB7AB0312087CC1AB0312087CD5ABCD
:101C13000312087CDFAB0312087CE9AB0312087CD8
:101C2300F3AB0312087C0CAC0312087C16AC031252
:101C3300087C8AAC0312087C95AC0312087CBAAC0E
:101C43000312087CC5AC0312087C13AD0312087C95
:101C53001DAD0312087C28AD0312087C4CAD0312A2
:101C6300087C70AD0312087CCCAD0312087C12AE65
:101C73000312087C2FAE0312087CACAE0312087C5F
:101C8300E3AE0312087C22AF0312087C6FAF03128A
:101C9300087CF1AF0312087C8AB00312087C5AB2A5
:101CA3000312087CB8B20312087CD4B30312087C75
:101CB300FAB30312087C39B50312087C5FB8031228
:101CC300087CA0BA0312087C7CBC0312087C12BDFA
:101CD3000312087C39BF0312087CE5BF0312087C9A
:101CE3001AC00312087C7FC00312087C89C0031248
:101CF300087CB3C20312087CDAC30312087C1AC43B
:101D03000312087CC0C40312087C51C60312087C6A
:101D1300DAC70312087CFAC70312087C53C80312FC
:101D2300087C55C90312087C9FC90312087CEFC9BC
:101D33000312087CD9CA0312087C4ECB0312087C19
:101D430068CC0312087CE3CC0312087CE8CD0312B1
:101D5300087C93D00312087CB2D00312087C13D200
:101D63000312087CD5D30312087C29D40312087C00
:101D7300E1D40312087C90D50312087CE6D5031244
:101D8300087C9CD60312087C31D70312087C9DD7AC
:101D93000312087CD7D70312087C08D80312087CE7
:101DA30064D90312087C00800212087C328002127C
:101DB300087C69800212087C52820212087C3583F7
:101DC3000212087C8D830212087CC8840212087CEC
:101DD30014850212087C3C880212087C9E8B021236
:101DE300087CEB8C0212087C818D0212087C8D8D9D
:101DF3000212087CBF8D0212087C418F0212087CFC
:101E03004F900212087C79900212087CD090021243
:101E1300087C29910212087C95910212087CAC93EC
:101E23000212087C3B950212087C05960212087C7C
:101E330043970212087C73990212087C439C021296
:101E4300087C509C0212087CD79C0212087C7F9D60
:101E53000212087CC29D0212087C0B9E0212087CAF
:101E63005F9E0212087CC49E0212087C2C9F021201
:101E7300087C499F0212087C799F0212087CAE9F5E
:101E83000212087C7EA00212087C27A10212087CA1
:101E9300ABA30212087CCBA40212087CB4A50212E5
:101EA300087C36A60212087C58AA0212087C95AA5E
:101EB3000212087CEDAA0212087C20AB0212087CF5
:101EC300A1AB0212087CEEAB0212087C79AC0212C1
:101ED300087CCBAC0212087CA2AD0212087C5BAE7C
:101EE3000212087CF6AE0212087C0FB20212087CC2
:101EF3002FB30212087CE0B60212087CFEB702126E
:101F0300087C01B80212087C30B80212087C36BA89
:101F13000212087C0FBB0212087C44BB0212087C2D
:101F23004CBC0212087C02BD0212087CA3BE021242
:101F3300087CC8BE0212087C07BF0212087C79BF66
:101F43000212087C5DC00212087C2AC10212087CBE
:101F530060C30212087CD1C30212087C11C40212AE
:101F6300087C4AC40212087CDEC40212087C27C61D
:101F73000212087CEAC90212087CD9CA0212087C40
:101F8300C0CB0212087C38CC0212087CFACC0212B5
:101F9300087CF8CE0212087C10CF0212087C24CFF2
:101FA3000212087C5CCF0212087C8ACF0212087CE2
:101FB30011D10212087C1CD20212087C6ED20212CA
:101FC300087CD6D20212087C88D30212087CB8D3CC
:101FD3000212087C9CD40212087C4DD50212087CA4
:101FE3003CD70212087C71D70212087CD9D702129F
:101FF300087C08D90212087CBAD90212087CEBD9F2
:102003000212087C03DA0212087C92DA0212087CBC
:1020130046DD0212087C1EDF0212087C3ADF021240
:10202300087C56DF0212087C24E00212087C08E4D4
:102033000212087C48820112087C80820112087C0B
:102043005E870112087CA4870112087CF1880112C3
:10205300087C5C890112087CE58A0112087CF58DF5
:102063000112087C108F0112087C22990112087C4E
:10207300B5990112087C079D0112087C039E011289
:10208300087C5E9E0112087CA89F0112087C96A022
:102093000112087C32A30112087CA6A40112087C59
:1020A30029A50112087C2CA50112087CA1A5011207
:1020B300087CABA50112087CB8A50112087CE3A536
:1020C3000112087C93A60112087C8CA70112087CDC
:1020D30037A80112087C55A80112087C6EA80112CA
:1020E300087C97A80112087CB9A80112087C0EABE2
:1020F3000112087CD3AB0112087C18AC0112087CD6
:1021030097AC0112087C43AD0112087C75AD011236
:10211300087CC9AD0112087C04AE0112087C4BAEE9
:102123000112087C9BAE0112087CA0AE0112087C50
:10213300F4AE0112087C20AF0112087C09B0011231
:10214300087C5AB00112087CBAB00112087C14B1A1
:102153000112087CAFB10112087CEEB40112087CB5
:1021630000B60112087C7AB70112087C8ABA011200
:10217300087C28BB0112087C1EBE0112087CDDBE50
:102183000112087C21BF0112087CCCC00112087C1B
:10219300E0C00112087CEAC00112087CF4C00112FD
:1021A300087C00C10112087C25C10112087CFEC213
:1021B3000112087C53C30112087C5DC30112087C21
:1021C30067C30112087CDCC30112087C2BC4011213
:1021D300087C3CC50112087C89C50112087C96C69F
:1021E3000112087CDAC60112087C80C70112087C40
:1021F30073C80112087C39C90112087C5CCA011238
:10220300087C7ACB0112087C62CC0112087C7ACC60
:102213000112087CD1CC0112087CDBCC0112087CB2
:10222300E5CC0112087CF0CC0112087C0ECD011222
:10223300087C56CD0112087CB8CD0112087CDFCD95
:102243000112087CF1CD0112087C8CCE0112087CAE
:10225300C1CE0112087CA8CF0112087CEDCF011278
:10226300087CD3D00112087CFAD00112087C7DD1FE
:102273000112087CEED10112087C77D30112087C8D
:10228300A3D40112087C66D50112087C2ED6011254
:10229300087CB8D60112087CE0D70112087C82D8EA
:1022A3000112087CFDD80112087CB9D90112087CFF
:1022B30003DA0112087C5DDA0112087C35DB0112B6
:1022C300087C58DB0112087C0BDC0112087C2DDC36
:1022D3000112087C96DC0112087CACDE0112087C3A
:1022E300A4DF0112087C68E00112087C9AE2011263
:1022F300087CE4E20112087C34E30112087C98E3D1
:102303000112087CFAE30112087C28E40112087C1C
:102313004CE40112087C81E40112087CB2E401124E
:10232300087CE5E40112087C35E50112087C88E5A8
:102333000112087CADE60112087C4DE80112087C0D
:10234300A8E80112087CD1E80112087C5EE90112B9
:10235300087CCCE90112087CDAE90112087CFEE969
:102363000112087C53EA0112087C6EEA0112087C10
:1023730020EB0112087C58EB0112087C9BEB011245
:10238300087CFEEB0112087C00EE0112087C2AEEA9
:102393000112087C21EF0112087C2BF00112087C4A
:1023A300DBF00112087CE1B40512087C19B50512B3
:1023B300087C3AB50512087C7CB50512087CDEB5AD
:1023C3000512087CE8B50512087CF8B50512087CEF
:1023D30033B60512087C13BA0512087C00BC05123B
:1023E300087CE6BD0512087C7DBE0512087C1FBF74
:1023F3000512087CBB2F0012087C66300012087C93
:1024030014310012087C1A320012087C3A3200128E
:10241300087C63330012087C1E350012087C91355A
:102423000012087C35360012087C41370012087C04
:10243300AC370012087CE8370012087C2B380012F6
:10244300087C66380012087CA8380012087C3D39E5
:102453000012087CB9390012087C833A0012087C08
:10246300603B0012087CF83B0012087C123C00120F
:10247300087C423C0012087C733C0012087C393D06
:102483000012087C493D0012087C983D0012087C2C
:10249300A53D0012087CAE3D0012087C2C3E0012C4
:1024A300087C883E0012087CD33E0012087CEE3E76
:1024B3000012087C193F0012087C363F0012087C8A
:1024C300423F0012087CD9400012087CF2400012FF
:1024D300087C77410012087C8A410012087CA941DC
:1024E3000012087C4D420012087CCE430012087C87
:1024F30081450012087C17460012087C1A46001218
:10250300087C8A460012087CA8460012087C3F47D4
:102513000012087C87470012087C8A470012087C57
:1025230050480012087CBD480012087CE3480012A2
:10253300087C6E490012087C8C490012087CD24941
:102543000012087C864A0012087CD04A0012087CDC
:10255300FF4A0012087C5C4B0012087C914B00126E
:10256300087CBD4B0012087CCB4B0012087C184C36
:102573000012087C884C0012087CD14C0012087CA5
:102583001D4D0012087C494D0012087C544D001269
:10259300087C724D0012087C5D4E0012087C674E69
:1025A3000012087CA24E0012087CB24E0012087C76
:1025B300064F0012087C1A4F0012087C4950001283
:1025C300087C5E500012087CEC500012087C3151EC
:1025D3000012087CBD510012087CC8510012087C0F
:1025E3000A530012087C25530012087C7153001211
:1025F300087CE0530012087C19540012087C335401
:102603000012087C93540012087C32550012087C97
:102613007D550012087C4D580012087CFF580012AB
:10262300087C6C590012087CAC5B0012087CC45B0C
:102633000012087CC75B0012087CD35B0012087C85
:10264300E75B0012087CEF5B0012087C225C00123F
:10265300087C255D0012087CB25D0012087C225EB6
:102663000012087CA45E0012087C655F0012087CDF
:10267300845F0012087C25600012087C82600012CF
:10268300087C85600012087CF9600012087C4862AF
:102693000012087C4E630012087CD9630012087C88
:1026A300F4640012087CBC650012087CED6500121E
:1026B300087C10660012087C19660012087C4866C4
:1026C3000012087CD8660012087C8E670012087C12
:1026D30003680012087CAA680012087C1F690012B4
:1026E300087C56690012087C94690012087CBBB010
:1026F3000512087C79B00512087CABAF0512087C83
:1027030095AF0512087C56AF0512087CB0AE0512D2
:10271300087C94AB0512087C67A90512087C37A9CD
:102723000512087CDBA80512087C75A80512087C35
:1027330034A80512087C14A80512087C46A70512C4
:10274300087CE1A60512087C85A60512087C28A64C
:102753000512087CC6A40512087C63A40512087C34
:10276300ADA30512087CA8A30512087C91A305124A
:10277300087C5CA30512087C87A00512087C07CCA3
:102783000512087C84A00512087C52CB0512087C34
:10279300DACA0512087C52B40512087C07B4051284
:1027A300087C9BB30512087C38B30512087C6BA028
:1027B3000512087C60A00512087C3CA00512087C69
:1027C300829E0512087C0EB30512087C0A9E051230
:1027D300087CA19D0512087C209D0512087CDC9CC9
:1027E3000512087CDEB20512087CB59C0512087C34
:1027F30099C90412087C8FCA0512087C36CA0512CF
:10280300087CF8C90512087CCBC90512087C97C956
:102813000512087C36C90512087C1EC90512087CFE
:10282300EEC80512087CC3C50512087C96C30512C1
:10283300087C9DC10512087C23C10512087CD2C007
:102843000512087C8CC00512087CD4B20512087CE2
:10285300F6BF0512087CD9B80400000080FBE473BE
:1028630087000100731C35000400391C2500020099
:102873003D1C260002003F1C27000200411C2800CB
:1028830001004B1C290001004C1C84000400281982
:1028930086000100A61B2A0001004D1C2B0001002D
:1028A3004E1C2C000100531C2D00080036192E006D
:1028B3000100541C2F000100551C30000100561C60
:1028C30031000100571C320001003E1933000100A2
:1028D3003F1934000100581C36000100401938002C
:1028E3000100591C39000100521C83000200711CB5
:1028F300630001004B19640001004F1C65000100D7
:10290300501C6D0001004C19710008002E1966005F
:102913000100701C43000100611C44000200621CA2
:1029230045000100641C46000200651C47000800C6
:10293300431948000100671C4B000100681C040098
:102943000100741CA1000100771C37000100761CF4
:1029530088000100751C3C00010041193D00010085
:102963005A1C49000200691C670001004D194D0003
:1029730002006B1C4E0001006D1C4F0002006E1C18
:102983003E000100601C510001005C1C520001006C
:102993005D1C530001005F1C54000100421900003C
:1029A30000000000000136360101000102010001B0
:1029B30003010001040106060502000007010034BB
:1029C3000801000F090401010D0100FF0E080000BA
:1029D30017020000190100FF1A0100011B0100FE8C
:1029E3001C0100081D0200001F010001200100015D
:1029F300210200002301000F240200002601000130
:102A030027010008280200FF2A0100072B010240CA
:102A13002C0100002D0100012E0100012F0100FFF8
:102A230030010B1D310800003A0100083B01000F83
:102A33003C0100013D0100FF3E0400004204000090
:102A4300460400004A0400004E0400005204000043
:102A5300560400005A0400000000030020014582D0
:102A63000000000020014682000004004201AD8105
:102A730000000500420158810000060042014F8119
:102A83000000070030014782000010004203051CCC
:102A9300000011003003E917000012001003161C98
:102AA300030000002103EA170000FDFF210140821B
:102AB3000300FDFF210140820204000029053E04BA
:102AC300060000001003E81701037103010301036B
:102AD30001030103010322030203010310030003A3
:102AE3000003000300030003000300034203000389
:102AF3002403060300030003040312032503230333
:102B03002503230304030403000300030003440316
:102B1300000300032303000365032100350381033E
:102B2300000305030003000300030003250323033D
:102B330003007100300160001100700031022003B6
:102B43005004800010006100000014006300730053
:102B53007200620043000000130006000000000042
:102B63000400120000000000000000000400040044
:102B7300370037003C024400000000000000000062
:102B8300650000003500810000000500000083009F
:102B930000000304710402046004110470040204BD
:102BA3000204010402041004610400041404630415
:102BB300730472046204430400041304060400044F
:102BC300000404041204000400040004000451047B
:102BD300640000040004000444040004000400042E
:102BE3000004650400043504810464000504000442
:102BF30083040004030271023001600211027002B7
:102C03000102020202028002100261023A00410044
:102C1300630273027202620243020002130238006B
:102C2300000200020402120200020002000200027B
:102C330004020402370037003C0244020002390058
:102C43000002000265020002350281020002050251
:102C530082028302000201017101010101011101DC
:102C630001013101010101018001100161013B00FA
:102C73001400630173017201620143010001130136
:102C830006013D01350004011201000100010001AC
:102C9300000104010401330133013C014401320109
:102CA30036000001000165010001350081010001CA
:102CB30005018201830100013600010006000000C6
:102CC3000F0000000000000000000000000003FFF0
:102CD300FF00000403FFFF0000FFFF0FF4010005E6
:102CE300C4040320000100140B00000000000000D6
:102CF3000003010F000000000000000000000000BE
:102D030000000000000000000000000000000000C0
:102D1300000000000000F8132214FE1338130414FB
:102D23002814041434140A14381304142814101423
:102D330038130000000016143813000000000000D0
:102D430000001C1438130000000000000000000005
:102D53000000000000000000000000000000000070
:102D63000000000000000000000000000000000060
:102D73000000130076171F007C171F8082170000C6
:102D8300FA170100FA170200F8160280F216030080
:102D9300FE160400041704800A1705001017060026
:102DA3001C1730003A17310034173200461733002E
:102DB3004C17350052173400581736005E171100B0
:102DC3006A171400701715002E17FFFF00000A0082
:102DD30000000200000004000000080000001000D2
:102DE30000002000000040000000800000000001FF
:102DF30000000002000000040000000800000010B2
:102E03000000002000000040000001702006A02008
:102E1300089A200BBE2010581D027620058E20072D
:102E23007C200C58200D6420643C1BFF000007EC41
:102E3300FDFDFDECDCDCCCBCACAC9C9C8C7C7C6CEC
:102E43006C5C5C5C4C4C3C3C2C2C1C1C00160F003A
:102E5300000B150B020002220F3300000E0F0000BF
:102E630000000000000000000000000000005A699C
:102E730067426565416C6C69616E63653039D0D1B9
:102E8300D2D3D4D5D6D7D8D9DADBDCDDDEDF150A49
:102E9300F4D4C0A5958272636155504900034D4C2B
:102EA3004651181A250502003C40423A3F3F392F4C
:102EB300473000011916181616182303003030176F
:102EC300181921301B1D1F30303016181920231AF2
:102ED3001C1E300C0E020B040B0A0708000F020421
:102EE3000201010101090200BE040AE8030000F621
:102EF300FB0100030000000000E803312E0E0091E7
:102F03002E7F0005101E04041E10080C2800040E5A
:102F130002000909033C0C080508150300FF030C14
:102F23000AFFE4F0A3F0A3F0A322122F25F02290CE
:102F33001A9812453112246022122F4022E0F5081C
:102F4300E4F509F50AF50B22E824FBF582E934FFE1
:102F5300F58322E82411F582E439F583E022F58331
:102F6300122F6722E0F508A3E0F509221226DC748C
:102F7300041208AC7F080206117401F09004BDE04E
:102F8300640F2274091208AC7F04020611EA2413A9
:102F9300FAE43FFB12260AE9227905122616740683
:102FA30022A3A3E024F5C39413221226E89004DDA0
:102FB3001264EF7A147B0022C082C083901A777464
:102FC30054F0A37424F0A37466F0A37424F0901A4D
:102FD3007B743CF0A37424F0A37436F0A37424F040
:102FE300A37472F0A37424F0A37478F0A37424F090
:102FF300A3746CF0A37424F0A37424F0A37424F0DA
:10300300901A877448F0A37424F0A3744EF0A37449
:1030130024F0A37442F0A37424F0A3747EF0A37489
:1030230024F0901A98124F006009901A9812452DB7
:10303300121212901A951248477408125B9CA3F05F
:10304300901B41F0901A9AF07C0BFDF97A9B7B1A46
:103053001211467C0B7D0079007AA67B1A12114669
:103063000246A174F71203FC74F712095FEAFEEB40
:10307300FF1230F974051249657403F0123210120D
:1030830049472430FCE43FFD8C821230F1123105B4
:10309300600812391E74FFF0A3F0EE242EE43F1CE7
:1030A3001CFD8C82F583A3E0C0E08A828B831245EA
:1030B300F9D0E012310588828983124E342403F05B
:1030C300EE123928120B877403F09004D2120724EE
:1030D300740212093F1234F21208ACE9F5087007C2
:1030E300EEFAEFFB1224F0A9087409023937F583CD
:1030F300E08882898322EA1230FE221250433FF590
:103103008322125E1C124953E8F0A3E91260F3E034
:103113002274F01203FCEAFEEBFF8C0C8D0D890B7D
:10312300123210F58312495B7410120B87E0F50815
:10313300A31230F3F0E824FFF582E9123504E50821
:10314300F0E824FEF582E9123504E50BF09004D78C
:10315300E0C0E0E824FDF582E9123504D0E0F09008
:1031630004D6E0C0E0E824FCF582E9123504D0E09F
:10317300F07412120B87122F63122F4BE509F0E83C
:1031830024FAF8E934FFF98882F583E508F0EE24A0
:1031930004FCE43FFD88088A828B83E0F50E8C8271
:1031A3008D83E0250EC39508125E1C124781850CA2
:1031B30082850D83A3A3A3A3A3A3A3A3E0640370A6
:1031C30009EE124935F0A3E48003123509123511D3
:1031D3007409F075089B75091A750A0078081208B6
:1031E300951258E61208AC7508FF7509FF780812A6
:1031F3000899AC0CAD0D1234F21208ACE9F5087065
:1032030007EEFAEFFB1224F0A908022F77EA240253
:10321300FAE43FFB8A8222C082C083901AB7E0C3DC
:103223009408400474078001E08A828B83F033336F
:103233003354F8F90246A174F01203FC8A088B098F
:10324300890A8C0E8D0F750C00A2AFE433F50BC207
:10325300AF901AB1804512333C503D12335664038C
:103263007036E50824F9F508E50934FFF5098E827F
:103273008F83A3A3E02405FCA3E03400FDAA08ABDD
:1032830009121302E50824FFF508E50934FFF509DF
:103293007410250CF50C150A12372B1268A4E50AD5
:1032A3006004EE4F70B0E50BA2E092AFA2AFE4333F
:1032B300F50BC2AF901AB1803E124E0D8882F58392
:1032C300124081850882850983F08A8289831233BB
:1032D3004DA3A3E0C0E0E50824FFF582E50912351C
:1032E30004D0E0F0E50824FEF508E50934FFF5090C
:1032F300050C150A12372B12357F602112335664E1
:103303000270F112333CEE40B0124A7CA2E550E465
:10331300850E82850F837401F0E50A70D7E50BA251
:10332300E092AF850882850983E50CF0E50824FF68
:10333300FAE50934FFFB022F77123342A2E622EEAD
:103343002411F582E43FF583E02212335122124E19
:1033530052A3228E828F83A3A31245FD12552922E5
:1033630074F01203FC74F312095F7403120B87E900
:10337300F07402120B87EAF08B0B85188285198390
:10338300E4F004120937122406E9F89004BCE0299A
:103393002437F508FA7B0012115E8A0C8B0DAE0CF4
:1033A300AF0DEA4F70030234E9EA2402F50EE43F5D
:1033B300F50FA808EA28F8E43BF9850E82850F8308
:1033C300123E7D9004BCE0F9FAC3E49AFA95E0FB5F
:1033D300850E82850F83E02AF50CA3E03BF50D9063
:1033E30004BA122F63750A007808120895E9FC7D68
:1033F30000AA0CAB0D1248B71208ACAC18AD197487
:1034030001120B87E0F9E50C24FFFAE50D34FFFB0D
:1034130012240C8A828B83E4F0E50BC454F0F990F8
:103423001B42E0C4333354C0F89004B6E0A2E0E496
:103433003313134849440FC0E0EA24FFF582EB122B
:103443003504D0E0F0EA24FEF50CEB34FFF50D74FF
:1034530003120B87E0F87402120B87E0C454F048A0
:10346300850C82850D83F0A80C850E82850F83124F
:103473005B692AC3988E828F83A3A3A3A3F0850ECF
:1034830082850F83E8F0A3E50DF01235091235119B
:10349300E4F0740C120B87E4F07508A675091A782A
:1034A300081208951258E61208AC8518828519830C
:1034B300E06009EE240E124A7E4408F01225F8E972
:1034C300F9E4F508F5097808120899740612093F1A
:1034D3001234F41208ACE97006EEFAEFFB800BEE3F
:1034E300FAEFFB1211647A007B00740D022F7479DA
:1034F30003EEFAEFFB122610740222EE24FFF5828C
:10350300EF34FFF58322EE1230FEE4F0A322F01233
:10351300351622EE1258093FF5832274F21203FC8A
:103523008A0C8B0DA2AFE433F50AC2AF75080075A0
:103533000900901AB1802C12373B5024850C8285E8
:103543000D83A3A31258F98E828F83A3A312452D53
:103553001225FEE9600A123736C2E6F08E088F099B
:1035630012372B12357F70CFE508450960061236F6
:1035730018D2E6F0E50AA2E092AF800DE0FEA3E0E8
:10358300FFEE4F2274021208AC7F0602061174F09C
:103593001203FC8A0E8B0F8C0C8D0D750A00A2AFE3
:1035A300E433F50BC2AF7E007F00901AB18010AEFA
:1035B30008AF09123610124A7CD2E7F012450B12FB
:1035C300451F6034123618A2E750F1850882850939
:1035D30083A3A3120724AC0CAD0DAA0EAB0F1226C6
:1035E3000474021208ACE960D3EE4F60C21239B220
:1035F300700612362AD2E4F0E50BA2E092AFEE4F4A
:1036030060061224EA750A01A90A022F77123342CF
:10361300D2E4F0EE22E5081258233509F583E022BF
:10362300AA82AB831213028E828F83A3A31245FD5A
:10363300E02274F21203FC74FE12095F750C00752C
:103643000D00851882851983E4F0A3F0A2AF33F54A
:103653000AC2AF901AB11268A4802BEE24FBF58244
:10366300EF34FF122F61780C1208991237191208E0
:10367300ACEEFCEFFDAA18AB19121182AE08AF092C
:10368300901AB7E014F0EE4F602B12373B501DEE4B
:10369300240BF8E43FF98882F583E024FFF0A3E0EC
:1036A30034FFF088828983124F0060AF8E0C8F0D38
:1036B30012372B80A1E50AA2E092AF901AB7E0601F
:1036C3002C9004BDE0640F6006901B41E0701E7AED
:1036D3008F7B1A1226E890823A1207207A8F7B1A80
:1036E3001247291208AC800574F012460AAA18ABD7
:1036F300191211888A088B09AE08AF09EA4F6013C3
:10370300122418123736A2E28E828F83A350D97403
:10371300E980D7023587EEFCEFFD7AB17B1A1211EF
:10372300947402228E0A8F0BEE24FBF582EF34FF92
:10373300F58322EE12334322123342A2E72274F7B7
:103743001203FCEAFEEBFF1224181245F61228615D
:10375300E964019004D9700AE02401F8A3E034007D
:10376300800312457CF9124C7E124781901AB7E010
:10377300701F9004BDE0640F70177A8F7B1A1226B6
:10378300E890823A1207207A8F7B1A12472912088F
:10379300ACA8A8C2AF901AB7E004F0E8A2E780048F
:1037A300E508A2E092AF024B8C74F71203FCEAFE29
:1037B300EBFFEA1237E2F0122418EEFCEFFD7AB1C8
:1037C3007B1A12118EA8A8C2AF901AB71240D090DC
:1037D30004BDE0640F700579081225B0024B8C120A
:1037E3003343C2E42274F71203FC74EA12095FEA5A
:1037F300FEEBFF9004B6E0602A8518828519837476
:1038030001F0120B87E412389D120B87123623C086
:10381300E0740A120B87D0E0125B89740B120B87DA
:10382300124DE9741602393774F71203FCEAFEEB02
:10383300FF1223FAE9F974DC69601E74DD6960190B
:1038430074E469601474F369600F74DE69600A7468
:10385300DF69600574DB697007EEFAEFFB1225B6CA
:10386300024B8C74F71203FC74EB12095FEAFEEB54
:10387300FF851882851983740612389D120B87AA57
:1038830082AB83121302EE2408FCE43FFD740A1298
:103893000B87124DE97415023937F0EA2413FCE45F
:1038A3003FFD74022274F71203FC74F712095FEAF6
:1038B300FEEBFFEA2430124A7E605DEA12392812D9
:1038C3000B877403F09004D212072412391E1207D7
:1038D300249004E5E0F9740412093FEEFAEFFB12B9
:1038E300240074041208ACE9F974DC69602374DD04
:1038F30069601E74E469601974F369601474DE69A5
:10390300600F74DF69600A74E869600574DB6970CD
:1039130007EEFAEFFB1225B60230ECEE242EF58209
:10392300E43FF58322125CFAAA18AB19121302744E
:10393300082274031208AC024B8C74F21203FC8A43
:103943000C8B0D750A00750B007508E7A2AFE43305
:10395300F509C2AF901AB1800312372712357F6081
:103963002512373B50F31239B270EEEE2432123B7C
:1039730049E06870E4780A1208991237191208AC02
:10398300901AB7E014F0E509A2E092AFEE4F60138E
:10399300EEFAEFFB12241879F0EEFAEFFB1225B6DC
:1039A300750800A908AA0CAB0D1225B602358C12B6
:1039B3003516E064012274F41203FC74F712095FF4
:1039C300EAFEEBFF8A82F583A3E064F37003023A15
:1039D300578A828B83A3E064DF60798A828B83A317
:1039E300E064E8606F8A828B83A3E064DB60651226
:1039F300245AE9F5087055EE240E124A7E604D12E2
:103A03003A6160487408120B87123A7012072475E2
:103A130008FF7509FF78081208998E828F83A3A384
:103A2300A3A3A3A3A3A3E0F9740412093F122400E0
:103A330074041208ACE9F50874F369600F74DF6964
:103A4300600A74E869600574DB69700F8E828F8386
:103A5300A3E508F0EEFAEFFB122466022F86EE24AC
:103A63000FFAE43FFB790912249CEA4B22740212F9
:103A730052EF74FFF0A3123A7D22124E3DA3A3220C
:103A830074F11203FCEAFEEBFF7508008A82F583EA
:103A9300A3A3A3A3A3A3122FA440037508E88A82B8
:103AA3008B83A3A3A3A3A3A3A3A3A3A3E0C3941060
:103AB30040057508E880138A828B83A3A3A3A3A37D
:103AC300A3A3A3A3A3E0640F600B901B1EE0540801
:103AD30070037508E8EA240B123B49A3A3A3A3A32D
:103AE300A3A3A3E0C398500DEA240B124A7E640FEC
:103AF30060037508E89004D6E0F47003A3E0F47063
:103B0300037508EC7A237B0012120C8B0BA90B9024
:103B13001A98123B5860278E828F83A3A3A982AA87
:103B230083890C8A0D750E00780C1208957C237D11
:103B330000901A98E0FA1248B71208AC800375088F
:103B43001AA9080258E1F582E43FF583E0F88A8276
:103B53008B83A3A322EAF0A3EBF0EA492274F512C4
:103B630003FCEAFEEBFF8A82F583A3A3A3A3A3A32B
:103B7300A3A3E09004BD123BF0E09004D8F0EA2444
:103B83000B124A7E9004B8123BF0A3E0901B42F064
:103B9300F9120EB8901B42E0600BEE2404124A7037
:103BA3002406123BE6901B41122F7C6004740180B3
:103BB300027400901A9A1262341208957C0B7D00ED
:103BC3007A9B7B1A1248B71208ACEE2418F508E466
:103BD3003FF50978081208957C0B7D007AA67B1ABD
:103BE3000248A4FAE43FFB79E1120EA02212621EFE
:103BF300A3A3A3A32274F71203FCEAFEEBFF8A82BA
:103C0300F583A3E07003122F32125DA5024B8C746F
:103C1300F71203FCEAFEEBFF901A98124F006010B4
:103C2300901A9812452D901A98E4F0A3F0121212EC
:103C33008E828F837408124611121A22024B8C74DF
:103C4300F61203FC901B41E06010901A9AE0700A90
:103C5300123C60EA4B60031224F0025E9F9004B8AA
:103C6300E0FB9004D8E0FA9004BDE0F9122412229C
:103C730074F41203FC74E712095FEAFEEBFF750BA1
:103C8300018A82F583A3A3A3A3A3A3A3E0A2E25083
:103C930069EA242BF582E43F1258F7EA2413FAE485
:103CA3003FFB12241EE9705290818EE0640170057F
:103CB300750B008045123D321208957C0B7D007414
:103CC300111209371248B71208AC1225F8E9FA7431
:103CD3000E12092F88088909780812089975083087
:103CE3007509007808120899EE125B521207241224
:103CF3005CEC7901122F9E1208AC8518828519831A
:103D03007410F0125CEC7402120B87AA82AB83125C
:103D130012F6EE242B1264E5740B120B8712478103
:103D2300740D120B87E50B125F5E7419022F88EE78
:103D3300240812623C22C082C083901B42E06003CD
:103D430012266A0246A1C082C083901B397477F0A1
:103D5300A3741AF0A3747BF0A3741AF0A37487F00E
:103D6300A3741AF0901C8E7495F0A3742BF0901B1F
:103D73002374F4F0A37423F0901ABC742AF0A37490
:103D830024F0901ABE7430F0A37424F0901B1EE04C
:103D930044020241A5C082C083EAFCEBFD79030221
:103DA3004EACC082C083790802601FC082C0837496
:103DB300FE12095F901AC474D8F0A37424F0901A09
:103DC300C674D2F0A37424F080077AB17B1A123E32
:103DD3000A901AB1124F0070F1901AB3124F00609B
:103DE300097AB37B1A123E0A80EF901AB1E4F0A36A
:103DF300F0901AB7F0A3F0A3F0901AD27414F0A3C2
:103E03007425F07402801C12118885188285198329
:103E1300EAF0A3EB123E1E1225E622F0AA18AB1914
:103E23002274111208AC0246A174F61203FCE9FFD6
:103E330074AA29F582E4342EF583E493FEFA7B0019
:103E430012115EEA4B6007EA2E123E7A80267A024E
:103E53007B0012115EEA4B601774C02FF582E434C5
:103E63002EF583E4938A828B83F0A3741A12424360
:103E73007A007B00025E9F124770E8125E19A3A3CB
:103E8300A3A3E4F022E9FC740629F8EAA2E0501E99
:103E9300E875F00A84E5F0F96014740A28C399F808
:103EA300E9C394054004740A28F8740B28F8ECC39A
:103EB30094134004791480027906E82979002409CF
:103EC300F85001097A0A7B001202ACE8F90208797A
:103ED300C082C083901B1EE05402600A121A28E9B4
:103EE30060047901800279000246A1C082C08390F8
:103EF3001B1EE054026014901AB7E0700A124EFDC4
:103F03006009123F1350047901800279000246A12F
:103F1300122F56A2E722C082C08390818BE0F890D3
:103F23001AB9E0C398500512115E80047A007B0031
:103F33000246A1C082C0831225E679000246A1C0D1
:103F430082C08374FE12095F851882851983EAF0A3
:103F5300A3EB1240ACA3A3A3A3A3E0600A1460578E
:103F630024FE605A02401C9004BDE0640F601212EC
:103F730025BCE9700C124527901AC01245F9122886
:103F8300619004E5E0C0E0851882851983124E2014
:103F9300D0E01240AC741412583DFCA3E0FD7AB398
:103FA3007B1A121182A8A8C2AF901AB91240D07915
:103FB300201225B0023E0612437A741580D91243AB
:103FC3007AA3A3A3A3E0605112437A12362EC0E072
:103FD300851882851983E02406F582E43BF583D0B6
:103FE300E012583D2402F8A3E03400F98882F583F7
:103FF300E02401FAA3E03400FB88828983EAF0A37A
:10400300EB12583D1243BA85188285198360131247
:10401300408160051240934048AA18AB191225E667
:10402300809212408160F212409350211240A0FA14
:10403300851882851983A3E0C82406124376F87491
:10404300E0125035342EF583E4936A6014851882A8
:10405300851983124081640870BF1240A064087000
:10406300B81240A0141240B4240AC0E08518828517
:1040730019831245F9D0E01240B404023F9A12406A
:10408300852212457CC82406F582E438F583E022B4
:10409300851882851983124085C3940A2285188264
:1040A300851983123351A3E0221240BEF58388821F
:1040B300221240BEC824061243A422F0851882852A
:1040C300198312457C22A8A8C2AF901AB8E004F065
:1040D300E8A2E792AF22C082C083901AC8124F00B1
:1040E3006008124381122861800279000246A1749C
:1040F300F71203FCEAFEEBFFEA12351774011247CD
:104103002FF8A3E0F91230F9124781EA2435124A55
:104113007EC0E0EA2413F582E43FF583D0E0F0EAC1
:104123002436124A7EC0E0EA2414F582E43FF58384
:10413300D0E0F0EA2438124A7EC0E0EA2418F5827F
:10414300E43FF583D0E0F0EA242FF582E43FF583E2
:10415300120724125CF9EA2431124A7EF91234F868
:104163001208ACE9F5087007EEFAEFFB1224F0A988
:1041730008024B8CC082C0831225BCE960047920FD
:10418300800279010246A1C082C083EA2411124150
:104193009BD2E0800DEA240DF582E43BF583E02217
:1041A300F0A3F00246A1C082C0831241986401705B
:1041B3001112423D400C8A828B83A3E0F91225B68B
:1041C300806612422EA2E650128A828B83A3E0F904
:1041D300901AC21245F9122861804D124198640168
:1041E300700D12423D50088A828B83743080368A68
:1041F300828B83A3E0641B8A828B83700474228086
:1042030024A3E0700D124198F874CB125035342E6C
:10421300800B124198F874C0125035342EF583E4A4
:10422300938A828B831242430246A112423222EACC
:104233002410F582E43BF583E022124232A2E3220A
:10424300F0901B19E0F912116A2274F71203FCE9CA
:10425300FE124EFD7003024373EE6014741B6E7006
:104263001AE812580939F583E06405700302434BD9
:10427300901ABB124381A3E402435274E96E70683F
:10428300E82412F582E439F583E0700B121A2EE963
:1042930060051243C4606179EE120E22901ABA12BD
:1042A300439B901ABA603A1243C7901ABA700B1222
:1042B300439B14F0120FE40243731243B9C2E71293
:1042C3004562240D12437664037009124394124528
:1042D30018D2E2F079ED120E221243AC122861805B
:1042E3007812438774E9806774E16E703E121A2E68
:1042F300E960551243C470509004DFE0C0E01243FC
:10430300942412F582E438F583D0E0F09004CEE0F3
:10431300C0E0901ABA124390124390D0E0F0900498
:10432300CEE004F07901120FCC8045741C6E701836
:10433300901ABA12452D901ACA1245F912286190A3
:104343001ABAE4F0A3F08028901ABA124387EEF069
:10435300901ABA12452D1224DE124543E0548060B0
:104363000312600E901ABAE4F0A3F079101225B08C
:10437300024B8C1243A422851882851983A3E0F58E
:104383008388822212438B22124601A322124E4EAD
:1043930022901ABA124E2F22124E2F24121243A425
:1043A30022F582E438F583E022901ABA124531905F
:1043B3001ABE1245FD22E0F8A3E0C824101243A45C
:1043C30022901ABA12454AE054042274F41203FCF0
:1043D300750A00750B00A2AFE433FEC2AF124EFDA7
:1043E30060030244C11245F6122861E94410F890B3
:1043F3001AB1800985080A85090B12450B12451F5E
:1044030070030244C1123618586870E8780A12081B
:1044130099AC08AD0912371D1208AC901ABAE50819
:10442300F0A3E509124562124518A2E750030244BE
:10443300C8901AB8E014F0EEA2E092AF901ABAE076
:10444300240EF8A3E03400F9E8FEE9FF8882F5833F
:1044530012452D901ABA1240A6F91224A2E9901A15
:10446300B5125B9C8E828F83E05480601812439454
:104473002413124376F9120EDC12439424141243CC
:1044830076F9120ED0124543A3E05401605F901AEF
:10449300B5124F0060451245596040124559F879ED
:1044A30000901AB512452D1202B4E8C0E012453748
:1044B300D0E0124567C3941340117402800FEEA23B
:1044C300E092AF8037901AB70244377400C0E0908F
:1044D3001ABBE0C8124502D0E0800D1245377401C3
:1044E3001245621245027401F07903800C901ABAE6
:1044F3001243B9A2E1B3E433F9120FCC022F8B2498
:104503001AF582E438F58322E50824FBF582E509F0
:1045130034FFF583221258231243A722122F67E593
:104523000845092285188285198312453122E0FA4C
:10453300A3E0FB22124E2C2419F582E438F58322E2
:10454300901ABA12454A2212457CC81245522212C9
:10455300504338F58322124E2C24181243A42212FE
:104563004574C822124574F5838882A3A3A3A3E0EC
:1045730022F0901ABA12457C22E0F8A3E02274F7E5
:104583001203FCEAFEEBFF1225E0124A7BA2E34092
:104593000A1239B27005908189800390818AE0F90B
:1045A300EEFCEFFD7AB17B1A12119AE96038EEFA4C
:1045B300EFFB901AC41245F9122861EE240E124A39
:1045C3007E540470121240C9EE1230FAA3E0540173
:1045D300701E1224EA8019EEFAEFFB901ABC124502
:1045E300F9122861800A8E828F83A374F112460A1E
:1045F300024B8C901AC61245FD2212460122E0F8A6
:10460300A3E0F5838882221246111224DE22F0EE03
:10461300FAEFFB2202469A74F71203FCEAFEEBFF61
:104623007900901B1EE05402700CEA2433124A7E78
:104633005404600279E8901B1EE05460700CEA2475
:1046430033124A7E5402600279E88A828B83A3A3E1
:10465300A3A3E0F890818FE0C398500279E8EA249D
:1046630031124A7E700CEA242E124A7E700479F5C8
:10467300800BE970051224CCE9F9E96007EEFAEF43
:10468300FB1225B6024B8CC082C0838A828B837453
:104693000DF0121A228007C082C0831224EAD0834D
:1046A300D08202087974F41203FCEAFEEBFF8A82DB
:1046B300F583E4F0A312472F54049081897012E02C
:1046C300F8901AB8E0C398401279F11225B6022F78
:1046D3008BE0F8901AB7E0C39850EE124735A3E089
:1046E30054016037EA2437124A7EC394054033EA03
:1046F3002433124A7E540570297ACC7B1A1226E899
:10470300EE2437F582E43FF583122F3C7808120834
:10471300917ACC7B1A1247291208ACEEFA12512671
:1047230080AC79E880A51226DC740422F0124735A8
:10473300E022EA2433F582E43FF5832274F6120380
:10474300FCE9FE2451FAE43400FB12115EEA4B60EB
:1047530015EE8A828B83A3A3A3A3F0EA2451124705
:104763007012478180047A007B00025E9FF8E43B6D
:10477300F98A828B83A3A3221264EF901B96E8F03D
:10478300A3E9F02202469AC082C083901AD5743EF0
:10479300F0A37425F0A3746EF0A37425F0A37444FE
:1047A300F0A37425F0A3744AF0A37425F0A37468EE
:1047B300F0A37425F0A3745CF0A37425F0A37456DE
:1047C300F0A37425F0A37474F0A37425F0A3747A92
:1047D300F0A37425F0A37480F0A37425F0A3748C64
:1047E300F0A37425F0A37450F0A37425F0A37438D8
:1047F300F0A37425F0A37432F0A37425F0901AF19A
:104803007462F0A37425F0A37486F0A37425F0A357
:1048130074A0F0A37426F0A37492F0A37425F0A3FC
:104823007498F0A37425F0901B15E4F0901B18F016
:10483300901B011248477402F0901B0A12484774F8
:10484300010241A574B0F0A37425F0A32274F512FC
:1048530003FC74F112095F8518828519837402F0D1
:104863007401120B87E9F060047AFF7BFF74021274
:104873000B871252E475080D75091B750A00780839
:104883001208957C0B7D007407120B87AA82AB83F9
:104893001248B71208ACAA18AB19121A22740F8067
:1048A300031248B71208AC7F030206117C0B7D008C
:1048B3007A0D7B1B12113A74032274F71203FC74F2
:1048C300FD12095F851882851983740AF074011239
:1048D3000B87E9F07402120B87EA125F5E02393527
:1048E30074F61203FC74F712095FEAFEEBFFEA1297
:1048F30049351249657402F0EA2428FCE43FFDAA15
:1049030018AB191212F6EE243112493B2433125913
:104913005D120899740212093F79831A1A1234F648
:104923001208ACE9F5087007EEFAEFFB1224F00267
:104933005E981230FE740122F582E43FF583122F54
:1049430067124E05F583124953E8F0A3E9F0EE220E
:1049530012495B8A828B8322E024FFF8A3E034FFB1
:10496300F922F0A3E4F0EA1235172274F01203FCE3
:104973001263CD120B307808790C12030D780812EC
:1049830008917A047B1B022F6F74F41203FC74C624
:1049930012095F9004BDE0640F600D8518828519CC
:1049A30083742E12530380227AFB7B1A122FAD12CB
:1049B30002B488088909E4F50AF50B78081208910E
:1049C3007AFB7B1A1247291208AC743A022F8874B7
:1049D300F51203FCEAFEEBFF8A82F583A3E0F8708D
:1049E30078EA2430124A7E64026007E064036002BE
:1049F30078E8EA2426F582E43FF583122FA64004E3
:104A030078E88058E87052EA2426123BE6EE243117
:104A1300124A702430124A7E6402700EEE24281269
:104A230064E59004CC12478180179004CC74FEF0A7
:104A3300A304F0EE2428FCE43FFD7AC37B041213A5
:104A430002EE241B123D351208951248AF1208AC32
:104A5300EEFAEFFB12252CE9F8E8600EE88E828F60
:104A630083A3125D017417125DAB0248AAFAE43FF7
:104A7300FB7950120EA0EE22EE2410F582E43FF5EE
:104A830083E02274F61203FC74F712095F901B187B
:104A9300E070377401F0F9120F96AA18AB191225BA
:104AA300F275080D75091B780812089975080175C8
:104AB300090078081208999004D212072474061288
:104AC300093F7A03122F9C1208AC025E9A74F71204
:104AD30003FC124CAC7004A374EBF0901B18E0A21F
:104AE300E25003C2E2F0E0A2E15005124CBD80099E
:104AF3008E828F83742A125DAB024B8C74F4120383
:104B0300FC74FE12095F124BB2124DF8EC85188249
:104B1300851983124E47E0F50B7015AA18AB197966
:104B230053120EA0EE2413FAE43FFB794A120EA0AF
:104B3300123D321208951248AF1208AC124527A94C
:104B43000B122520901B18E0A2E15003124CC490D5
:104B53001B18E4F07402022F8874F71203FCEAFEB8
:104B6300EBFF8A82F583A374EBF0901B18E0A2E1BC
:104B730050077A0079EB122526EEFAEFFB12255C3B
:104B83008007EEFAEFFB12265E7F0102061174F72F
:104B93001203FC124BB2901B15E4F0901B18F07A31
:104BA300FF7BFF8E828F83A3E0F912252080DA1228
:104BB3004CFD7A047B1B1226E82274F71203FCEAED
:104BC300FEEBFF12255680BA74F71203FC124D3A1E
:104BD300A3A3A3E060047400800274EB124C0B5097
:104BE30003C2E2F0E0A2E15005124D0E8011A2E0F3
:104BF300500D8E828F83742AF0A374EB125DABEE9B
:104C0300FAEFFB12250280818E828F83A3F0901B23
:104C130018E0A2E22274F61203FCEAFEEBFF901BFB
:104C230018E0D2E1F07901120F968E828F83A3E010
:104C330070381225F8E9FAEE240DF508E43FF5097A
:104C430078081208997508017509007808120899FF
:104C5300124C7E120724EE2402FCE43FFD122F9C2B
:104C63001208ACE98E828F83A3F08E828F83A3E038
:104C730060067A00F9122526025E9FEE240BF58268
:104C8300E43FF5832274F71203FC124CAC7004A3C7
:104C930074EBF0901B18E0A2E25003C2E2F0E0A232
:104CA300E15003124CBD024B8CEAFEEBFF7901127B
:104CB3000F9C8E828F83E0642022C2E1F0124CC4E9
:104CC300227A008E828F83A3E0F91225262274F7BD
:104CD3001203FC124CFD8E828F83A3A3A3A3E06077
:104CE300047400800274EB124C0B5003C2E2F0E038
:104CF300A2E15003124D0E024C02EAFEEBFF7901D2
:104D0300120F9C7AFB7B1A1226E822C2E112622F51
:104D1300E0A2E4E433FA124CC62274F71203FC1245
:104D23004D3A74EB124C105003C2E2F0E0A2E15092
:104D330003124CBD024B8CEAFEEBFF7901120F9C70
:104D43008E828F83A32274F71203FC124D5F024BF2
:104D53008574F71203FC124D5F024B8CEAFEEBFFE6
:104D63007AFB7B1A1226E8EEFAEFFB1225802274F7
:104D7300F71203FC74EF12095FEAFEEBFFEA125C21
:104D8300ED7AC37B041212F0E96056851882851907
:104D9300837409F07401120B8774EFF0124DF874E9
:104DA30002120B87EC124E47A3A3E0C0E074041277
:104DB3000B87D0E0124E34640870158E828F83A364
:104DC300A3124E20E0C0E07405120B87D0E08006EA
:104DD3007405120B87E4125B897406120B87124D5C
:104DE300E97411023937AA82AB83122628AA18ABB9
:104DF30019121A2222124E05F583124E17FCA3E054
:104E0300F922EE124E0DFB8882222402F8E43FF9C8
:104E1300E8FAE92212457C8882F583E022124E2FBC
:104E23002407F582E438F58322901ABA12457CC828
:104E330022124E3822124E3DE022F08E828F83A33F
:104E4300A3A3A322125E19124E4E22124E5222E047
:104E5300F8A3E0F5838882A3A322C082C08312262D
:104E63006A0246A1C082C083901B3574D5F0A37437
:104E73001AF0A374F1F0A3741AF0901C887459F01B
:104E8300A3742CF0A374F7F0A3742BF0901B21747C
:104E93001AF0A37425F0901B1EE044010241A5C043
:104EA30082C083EAFCEBFD79021225CE0246A1748F
:104EB300F61203FC74FE12095F901B1A124F006076
:104EC300077A1A7B1B1225E6901B20E4F0901794B7
:104ED300124F0060208007AA18AB191225E6901B19
:104EE30019E0F91211768B09A909851882851983AE
:104EF300123B5870E27402025E9C901ABA1264EF7D
:104F0300E8492274F71203FCE9FA7B00901B19E0CD
:104F1300F91211A0024B8C74F71203FC74F01209FE
:104F23005FEAFCEBFDE9FE8A828B83E0F874D6121C
:104F33005035342EF583E493C0E07401120B87D00F
:104F4300E0F0640B700DE98A828B83A3F012264C88
:104F5300025030E07003025030640C6003025021B1
:104F6300741A6E700B7404120B87E4F0A3025020C2
:104F73007404120B871252E4EA24321257EDC0E094
:104F83007403120B87D0E012621A120B58740612C4
:104F93000B87120B4C8C828D83A3A3A3A3A3A3A380
:104FA300A3A31264EB740A120B87E8F0A3E912506F
:104FB3003AE054106009851882851983E48013EC64
:104FC30024121257EDF89004DFE0C3988518828508
:104FD3001983F0E0C0E0740C120B87D0E0F0EC24EE
:104FE300151257EDC0E0740D120B87D0E0F0EC24DE
:104FF300161257EDC0E0740E120B87D0E0F0EC24CC
:10500300171257EDC0E0740F120B87D0E012503A1D
:10501300A3E0540160087401120B877411F0740249
:10502300120B87EEF07401120937121A2274100260
:10503300393728F582E422F0EC1250433DF5832200
:10504300240EF582E422C082C083901B20E0640317
:1050530070047901800279000246A174F71203FCFF
:10506300901B20E01250D9748628F582741C39F500
:105073008312556BC2E7F01250E0A3E493FE25E0E0
:10508300FCE433FD74862CF582741C3D1258F7EC56
:105093004D6005EE901B20F08A828B83E025E0FCB7
:1050A300E433FDE82CF582E93DF583E493FCC45435
:1050B3000F25E0F8742F125035341BF583124F007F
:1050C300700512263A800CEC540F1250E01245F989
:1050D300122861024B8C25E0F8E433F92225E0FC29
:1050E300E82CF582E439F5832274F21203FC74FE92
:1050F30012095F890B8A088B0912518B12517C604C
:105103001A125B96F50A7808120895125198240230
:105113001258ED1208AC12512480031251AA023521
:1051230087AA0CEFFB901B19E0F912116A2274F0A5
:105133001203FC74FE12095F890B8A0E8B0F125146
:105143008BF50812517C6027125B96A808EA281297
:105153003E7A850E08850F09F50A7808120895121C
:1051630051981258EB1208AC1251247900800512A1
:1051730051AA791A7402022F74FA7B0012115E8A03
:105183000C8B0DAF0DEA4F22749F29F582E4342E68
:10519300F583E49322A80B74B5125035342EF583AE
:1051A300E493FC7D00EA22851882851983E50BF0E0
:1051B300791AAA18AB191225B622C082C083E990C6
:1051C3001B190241A574F61203FC74FE12095FEA6F
:1051D300FEEBFFEA542070308039A8A8C2AF901AC2
:1051E300B9E0141240D28A828B831252D1901B1CD5
:1051F3001252E41225C2851882851983E064156072
:10520300077A1C7B1B1225E67AB37B1A121188EAF4
:105213004B70C7EF5480700C8016901B1CEAF0A3F0
:10522300EB1252F7901B19E0F9121176EA4B70EA70
:10523300EE5410600B851882851983742D12530365
:10524300EEA2E0500B851882851983742412530350
:10525300EE5402600B85188285198374251253035B
:10526300EE5404600B851882851983742612530348
:10527300EE5408600B851882851983742812530332
:10528300EE5440600D7401120B871252EA742C1213
:105293005303EE5480600D7401120B871252EA74AB
:1052A3002F125303901B1A124F00601BA8A8C2AF02
:1052B300901B1A12452D901B1AE4F0A31240D2A39F
:1052C300EAF0A3E91252F77A007B00024EF8125279
:1052D300D522E0851882851983F022A3A3A3A3A373
:1052E300A3EAF0A3EBF022E41252EF22F085188236
:1052F30085198322F01225C27A1C7B1B1225E62214
:10530300123E1E1225C222C082C083901B1C125F54
:1053130059687002EB697007901B1CE4F0A3F0025C
:1053230046A174F71203FCEAFEEBFFEA4F70031287
:105333000CA8A2AFE433F508C2AF8E828F83124F5D
:10534300006028E824FBFAE934FFFB901B1C125889
:10535300F9E86C7002E96D7007901B1CE4F0A3F090
:105363008E828F83E4F0A3F01212120237A3C0825D
:10537300C083901B43742EF0A37426F0A37440F0F3
:10538300A37426F0A37446F0A37426F0A374FCF070
:10539300A37424F0A3744CF0A37426F0A374F6F062
:1053A300A37424F0A37402F0A37425F0901B51742A
:1053B3007CF0A37426F0A37452F0A37426F0A374B4
:1053C30058F0A37426F0A37464F0A37426F0A374B6
:1053D3005EF0A37426F0901B42E40241A5C082C094
:1053E300839004CCE064FE7003A3E0F470097CC3F3
:1053F3007D041212F6801C8A828B83A3A3A3A3A32A
:10540300A3A3A37402F09004CC1264EB8A828B836F
:105413001247810246A1C082C0839004D6C3E094A0
:10542300FEA3E094FF40047903800279020246A1BF
:10543300C082C0831255748C828D83125529687083
:1054430039740268701C8A828B83125482E06870FC
:10545300298A828B83A3125482A3E068701C79018A
:10546300801A7403687013EC2405FC50010DEA24C0
:1054730005FA50010B1212FC800279000246A1A327
:10548300A3A3A3A3E0F88C828D83A3A3A3A3A32246
:1054930074F61203FC7E00740A120B87E012551D8A
:1054A300FF8A828B83A3A3A3A3A3A3A3A3E06F7009
:1054B3006474026F704E8A828B83C082C083888239
:1054C3008983A3A3A3A3A3E0F50888828983A3A365
:1054D300A3A3A3A3E0FBAA08D083D082E06A70034E
:1054E300A3E06B703088828983A3A3A3E0FA888248
:1054F3008983A3A3A3A3E0F9EA6C7002E96D701595
:105503007E01801174036F700CE82405FCE439FDFF
:105513001212FCE9FEEEF9025E9FF8A3E0F988821D
:10552300F58312552922A3E01313543F540322C0D9
:1055330082C0838A828B83A3A3A3A3A3A3A3A3E091
:10554300640270169004CC12556B687003A3E06973
:1055530070047901800F7900800BEAFCEBFD7AC3BC
:105563007B041212F00246A11264EF8A828B83E05D
:10557300228A828B83125529F82274F01203FC7459
:10558300FC12095FE9851882851983F07402120BF6
:1055930087ECF0A3EDF08A0A8B0B750800740212F6
:1055A3000B87E024081257EDC0E07401120B87D07B
:1055B300E012583DA2E75008750EFF750FFF800AF1
:1055C3009004D2E0F50EA3E0F50F851882851983C8
:1055D300E0C2E71258425420600712580F74088043
:1055E3000412580FE41258425404600712581A74F4
:1055F30080800512581A7410125842541060061213
:1056030057F5E4800B9004DFE0C0E01257F5D0E0DB
:10561300125842A2E0500375082054086006741023
:105623004508F5088A828B83A3A3E024FFFEA3E049
:1056330034FFFFEA125800C39402E0400F640B608A
:1056430009E0148E828F8312583374034508F508DA
:105653007509009004F2E0640170118A828B83A3C0
:10566300A3A3A3E0C394674003750910851882853B
:105673001983E0F50C750D00740E780C120A78E5A9
:105683000D4509F509E06402701B9004D7E08E8292
:105693008F83F09004D6E0C0E01234FED0E0F0EE49
:1056A30024FEFE801CE06403701DEE24F9FEEF343B
:1056B300FFFF7CE67D04EEFAEFFB121302EE24FFFC
:1056C3001EEF34FFFF8003E0602F7401120B87E0AD
:1056D30060187414120B87E0650E7004A3E0650F65
:1056E300700874404508F508800F8E828F83E50F9C
:1056F300F01234FEE50E1258297401120B87E0F5FF
:105703000C750D00740A780C120A78E50D4509F53D
:1057130009E0640270237402120B87125F548E82B5
:105723008F83F07402120B87123630C0E01234FEFE
:10573300D0E0F0EE24FEFE8020E064037021EE242E
:10574300F9FEEF34FFFF7402120B871258F9EEFAD9
:10575300EFFB121302EE24FF1EEF34FFFF8003E082
:10576300601C7414120B87A3E08E828F83F0741471
:10577300120B87E0C0E01234FED0E0125829EEF895
:10578300EFF9E824FF1EE934FFFFE50A1258007021
:10579300059004C280039004CEE0FA04F0EA888204
:1057A3008983125D01E5091258338E82F583E5087A
:1057B300F0E50A2404F8E4350BF9E50A2402FAE4D7
:1057C300350BFBEEFC8A828B83E0F50888828983A4
:1057D300E02508C39C125E1CEEF0A3EFF0850A825D
:1057E300850B83A3E4F0F9022F72F582E43DF58380
:1057F300E022EA2412F582E4350BF58322125809DC
:10580300350BF583E022240DF582E422EA2410F51A
:1058130082E4350BF58322EA125823350BF58322F4
:105823002411F582E422F0EE24FEFEEF34FFFF2282
:10583300F0EE24FF1EEF34FFFF221252EFE022F0BE
:10584300EA125043350BF583E02274F11203FC7422
:10585300FE12095F851882851983ECF0A3EDF089A8
:105863000B8A0E750A1A7415120B8712677E12249F
:105873009C8A0C8B0DAE0CAF0DEA4F605A74131259
:105883000B87125F59125958F0A3E9124968E50BC7
:10589300F0750A0078081208957C0B7D00EA12580F
:1058A300EB1208AC7411120B871207247402120B4B
:1058B300871258F9A90E1234F41208ACE9F50A70EC
:1058C30016E50B24F96003147006123736D2E5F09F
:1058D300EEFAEFFB1224F0A90A74021208AC7F0758
:1058E3000206117C0B7D00EE241BFAE43FFB121130
:1058F3003A740322F583E0FCA3E0FD2274F612035D
:10590300FC74F712095FEAFEEBFF7801EA24321216
:105913004A7E60027805EA125958124965740412E6
:105923005CF4AA18AB191212F6EE242F12493B2489
:105933003112595D120899740212093F79031A1A38
:105943001234F61208ACE9F5087007EEFAEFFB1211
:1059530024F0025E981230FEE822F582E43F123012
:10596300F1124E3804F078082274F21203FC8A080C
:105973008B09ECFEEDFF8A828B837405F0EC125DDC
:105983008D1260E1F0EA2403F50AE43509F50B858D
:105993000A82F583E0F50CA3E0F50DEC2425F582EE
:1059A300E43FF583120B58E50C125823350DF583AC
:1059B300120B4CEC125CEDAA0CAB0D1212F6850A1D
:1059C30082850B831267FE125B52125B751252DEE5
:1059D300EE242F124A7EC0E0125B5BD0E0125BA183
:1059E3002415F582E438F583E4125BA1124552E4F1
:1059F300125B89850A82850B83E02416FAA3E034BF
:105A030000FB1226288E828F83A3A3A3A3A3A3A3A1
:105A1300E0C0E0850A82850B831243971258093848
:105A2300F583D0E0125B80FAA3E0FB850A82850B45
:105A3300831264EBE8240BFCE439FD8A828B83E058
:105A43008C828D83125B9C8A828B83A3E0F50B8C03
:105A5300828D83A3E0450B125E14A3E0FCEA2403CA
:105A6300FA50010BECA2E7E433C0E0E8240FF5821F
:105A7300E439F583D0E0F074075C600478018002B8
:105A8300780075F00374075CA428F8EA28FAE43B6D
:105A9300FBE5082405F8E43509F98A828B83123083
:105AA300F3125E14AA82AB8385088285098312529E
:105AB300DE88828983E0F50A25E0540EFCE50AC4FA
:105AC300540FF50A750B007403780A120A78E50A75
:105AD3005438F8EC28F8EA28F8E43BF9850882857D
:105AE3000983A3A3A3A3A3A3A3A3A3E8F0A3E912F6
:105AF3004E34FA8E828F83A3A3E02AFAA3E0340004
:105B0300FBC3EA98EB9940288E828F83A3A3E0F826
:105B1300850882850983A3A3A3A3A3A3A3A3A31295
:105B23005B69C39A28850882850983A3A3A380168A
:105B3300850882850983A3A3A3A3A3A3A3A3E4F056
